{
  "_format": "hh-sol-artifact-1",
  "contractName": "FlatLaunchpegMini",
  "sourceName": "contracts/FlatLaunchpegMini.sol",
  "abi": [
    {
      "anonymous": false,
      "inputs": [
        {
          "indexed": false,
          "internalType": "uint256",
          "name": "allowlistStartTime",
          "type": "uint256"
        },
        {
          "indexed": false,
          "internalType": "uint256",
          "name": "publicSaleStartTime",
          "type": "uint256"
        },
        {
          "indexed": false,
          "internalType": "uint256",
          "name": "allowlistPrice",
          "type": "uint256"
        },
        {
          "indexed": false,
          "internalType": "uint256",
          "name": "salePrice",
          "type": "uint256"
        }
      ],
      "name": "Initialized",
      "type": "event"
    },
    {
      "inputs": [
        {
          "internalType": "address",
          "name": "",
          "type": "address"
        }
      ],
      "name": "allowlist",
      "outputs": [
        {
          "internalType": "uint256",
          "name": "",
          "type": "uint256"
        }
      ],
      "stateMutability": "view",
      "type": "function"
    },
    {
      "inputs": [
        {
          "internalType": "uint256",
          "name": "_quantity",
          "type": "uint256"
        }
      ],
      "name": "allowlistMint",
      "outputs": [],
      "stateMutability": "payable",
      "type": "function"
    },
    {
      "inputs": [],
      "name": "allowlistPrice",
      "outputs": [
        {
          "internalType": "uint256",
          "name": "",
          "type": "uint256"
        }
      ],
      "stateMutability": "view",
      "type": "function"
    },
    {
      "inputs": [],
      "name": "allowlistStartTime",
      "outputs": [
        {
          "internalType": "uint256",
          "name": "",
          "type": "uint256"
        }
      ],
      "stateMutability": "view",
      "type": "function"
    },
    {
      "inputs": [
        {
          "internalType": "address",
          "name": "owner",
          "type": "address"
        }
      ],
      "name": "balanceOf",
      "outputs": [
        {
          "internalType": "uint256",
          "name": "",
          "type": "uint256"
        }
      ],
      "stateMutability": "view",
      "type": "function"
    },
    {
      "inputs": [],
      "name": "currentPhase",
      "outputs": [
        {
          "internalType": "enum FlatLaunchpegMini.Phase",
          "name": "",
          "type": "uint8"
        }
      ],
      "stateMutability": "view",
      "type": "function"
    },
    {
      "inputs": [
        {
          "internalType": "uint256",
          "name": "_allowlistStartTime",
          "type": "uint256"
        },
        {
          "internalType": "uint256",
          "name": "_publicSaleStartTime",
          "type": "uint256"
        },
        {
          "internalType": "uint256",
          "name": "_allowlistPrice",
          "type": "uint256"
        },
        {
          "internalType": "uint256",
          "name": "_salePrice",
          "type": "uint256"
        }
      ],
      "name": "initializePhases",
      "outputs": [],
      "stateMutability": "nonpayable",
      "type": "function"
    },
    {
      "inputs": [],
      "name": "publicSaleStartTime",
      "outputs": [
        {
          "internalType": "uint256",
          "name": "",
          "type": "uint256"
        }
      ],
      "stateMutability": "view",
      "type": "function"
    },
    {
      "inputs": [],
      "name": "salePrice",
      "outputs": [
        {
          "internalType": "uint256",
          "name": "",
          "type": "uint256"
        }
      ],
      "stateMutability": "view",
      "type": "function"
    },
    {
      "inputs": [
        {
          "internalType": "address[]",
          "name": "users",
          "type": "address[]"
        },
        {
          "internalType": "uint256",
          "name": "quantity",
          "type": "uint256"
        }
      ],
      "name": "setAllowlist",
      "outputs": [],
      "stateMutability": "nonpayable",
      "type": "function"
    }
  ],
  "bytecode": "0x608060405234801561001057600080fd5b5061112a806100206000396000f3fe6080604052600436106100915760003560e01c806390967a521161005957806390967a521461017d578063a7cd52cb146101a8578063c180526a146101e5578063d0061f8814610201578063f51f96dd1461022a57610091565b8063055ad42e14610096578063216b9926146100c157806359d7bc4d146100ea5780636bb7b1d91461011557806370a0823114610140575b600080fd5b3480156100a257600080fd5b506100ab610255565b6040516100b89190610b2a565b60405180910390f35b3480156100cd57600080fd5b506100e860048036038101906100e391906108c8565b6102ac565b005b3480156100f657600080fd5b506100ff61033e565b60405161010c9190610c45565b60405180910390f35b34801561012157600080fd5b5061012a610344565b6040516101379190610c45565b60405180910390f35b34801561014c57600080fd5b506101676004803603810190610162919061089b565b61034a565b6040516101749190610c45565b60405180910390f35b34801561018957600080fd5b50610192610402565b60405161019f9190610c45565b60405180910390f35b3480156101b457600080fd5b506101cf60048036038101906101ca919061089b565b610408565b6040516101dc9190610c45565b60405180910390f35b6101ff60048036038101906101fa9190610928565b610420565b005b34801561020d57600080fd5b5061022860048036038101906102239190610955565b6105de565b005b34801561023657600080fd5b5061023f61070e565b60405161024c9190610c45565b60405180910390f35b600080600254148061026957506000600354145b80610275575060025442105b1561028357600090506102a9565b6002544210158015610296575060035442105b156102a457600290506102a9565b600390505b90565b60005b838390508110156103385781600560008686858181106102d2576102d1610ead565b5b90506020020160208101906102e7919061089b565b73ffffffffffffffffffffffffffffffffffffffff1673ffffffffffffffffffffffffffffffffffffffff16815260200190815260200160002081905550808061033090610e06565b9150506102af565b50505050565b60025481565b60035481565b60008073ffffffffffffffffffffffffffffffffffffffff168273ffffffffffffffffffffffffffffffffffffffff1614156103bb576040517f08c379a00000000000000000000000000000000000000000000000000000000081526004016103b290610b65565b60405180910390fd5b600460008373ffffffffffffffffffffffffffffffffffffffff1673ffffffffffffffffffffffffffffffffffffffff168152602001908152602001600020549050919050565b60005481565b60056020528060005260406000206000915090505481565b600280600381111561043557610434610e7e565b5b61043d610255565b600381111561044f5761044e610e7e565b5b1461048f576040517f08c379a000000000000000000000000000000000000000000000000000000000815260040161048690610c25565b60405180910390fd5b600560003373ffffffffffffffffffffffffffffffffffffffff1673ffffffffffffffffffffffffffffffffffffffff16815260200190815260200160002054821115610511576040517f08c379a000000000000000000000000000000000000000000000000000000000815260040161050890610b85565b60405180910390fd5b81600560003373ffffffffffffffffffffffffffffffffffffffff1673ffffffffffffffffffffffffffffffffffffffff16815260200190815260200160002060008282546105609190610d71565b925050819055506000826000546105779190610d17565b90506001600460003373ffffffffffffffffffffffffffffffffffffffff1673ffffffffffffffffffffffffffffffffffffffff16815260200190815260200160002060008282546105c99190610cc1565b925050819055506105d981610714565b505050565b42841015610621576040517f08c379a000000000000000000000000000000000000000000000000000000000815260040161061890610b45565b60405180910390fd5b83831015610664576040517f08c379a000000000000000000000000000000000000000000000000000000000815260040161065b90610ba5565b60405180910390fd5b808211156106a7576040517f08c379a000000000000000000000000000000000000000000000000000000000815260040161069e90610c05565b60405180910390fd5b806001819055508160008190555083600281905550826003819055507f21adc90360bc280b314eb6502b95564cc7180b3d7cdb300b03a8a2f41de14f3e6002546003546000546001546040516107009493929190610c60565b60405180910390a150505050565b60015481565b80341015610757576040517f08c379a000000000000000000000000000000000000000000000000000000000815260040161074e90610be5565b60405180910390fd5b803411156108185760003373ffffffffffffffffffffffffffffffffffffffff1682346107849190610d71565b60405161079090610b15565b60006040518083038185875af1925050503d80600081146107cd576040519150601f19603f3d011682016040523d82523d6000602084013e6107d2565b606091505b5050905080610816576040517f08c379a000000000000000000000000000000000000000000000000000000000815260040161080d90610bc5565b60405180910390fd5b505b50565b60008135905061082a816110c6565b92915050565b60008083601f84011261084657610845610ee1565b5b8235905067ffffffffffffffff81111561086357610862610edc565b5b60208301915083602082028301111561087f5761087e610ee6565b5b9250929050565b600081359050610895816110dd565b92915050565b6000602082840312156108b1576108b0610ef0565b5b60006108bf8482850161081b565b91505092915050565b6000806000604084860312156108e1576108e0610ef0565b5b600084013567ffffffffffffffff8111156108ff576108fe610eeb565b5b61090b86828701610830565b9350935050602061091e86828701610886565b9150509250925092565b60006020828403121561093e5761093d610ef0565b5b600061094c84828501610886565b91505092915050565b6000806000806080858703121561096f5761096e610ef0565b5b600061097d87828801610886565b945050602061098e87828801610886565b935050604061099f87828801610886565b92505060606109b087828801610886565b91505092959194509250565b6109c581610df4565b82525050565b60006109d8601b83610cb0565b91506109e382610ef5565b602082019050919050565b60006109fb602983610cb0565b9150610a0682610f1e565b604082019050919050565b6000610a1e602683610cb0565b9150610a2982610f6d565b604082019050919050565b6000610a41602483610cb0565b9150610a4c82610fbc565b604082019050919050565b6000610a64601983610cb0565b9150610a6f8261100b565b602082019050919050565b6000610a87601883610cb0565b9150610a9282611034565b602082019050919050565b6000610aaa600083610ca5565b9150610ab58261105d565b600082019050919050565b6000610acd602083610cb0565b9150610ad882611060565b602082019050919050565b6000610af0600b83610cb0565b9150610afb82611089565b602082019050919050565b610b0f81610dea565b82525050565b6000610b2082610a9d565b9150819050919050565b6000602082019050610b3f60008301846109bc565b92915050565b60006020820190508181036000830152610b5e816109cb565b9050919050565b60006020820190508181036000830152610b7e816109ee565b9050919050565b60006020820190508181036000830152610b9e81610a11565b9050919050565b60006020820190508181036000830152610bbe81610a34565b9050919050565b60006020820190508181036000830152610bde81610a57565b9050919050565b60006020820190508181036000830152610bfe81610a7a565b9050919050565b60006020820190508181036000830152610c1e81610ac0565b9050919050565b60006020820190508181036000830152610c3e81610ae3565b9050919050565b6000602082019050610c5a6000830184610b06565b92915050565b6000608082019050610c756000830187610b06565b610c826020830186610b06565b610c8f6040830185610b06565b610c9c6060830184610b06565b95945050505050565b600081905092915050565b600082825260208201905092915050565b6000610ccc82610dea565b9150610cd783610dea565b9250827fffffffffffffffffffffffffffffffffffffffffffffffffffffffffffffffff03821115610d0c57610d0b610e4f565b5b828201905092915050565b6000610d2282610dea565b9150610d2d83610dea565b9250817fffffffffffffffffffffffffffffffffffffffffffffffffffffffffffffffff0483118215151615610d6657610d65610e4f565b5b828202905092915050565b6000610d7c82610dea565b9150610d8783610dea565b925082821015610d9a57610d99610e4f565b5b828203905092915050565b6000610db082610dca565b9050919050565b6000819050610dc5826110b2565b919050565b600073ffffffffffffffffffffffffffffffffffffffff82169050919050565b6000819050919050565b6000610dff82610db7565b9050919050565b6000610e1182610dea565b91507fffffffffffffffffffffffffffffffffffffffffffffffffffffffffffffffff821415610e4457610e43610e4f565b5b600182019050919050565b7f4e487b7100000000000000000000000000000000000000000000000000000000600052601160045260246000fd5b7f4e487b7100000000000000000000000000000000000000000000000000000000600052602160045260246000fd5b7f4e487b7100000000000000000000000000000000000000000000000000000000600052603260045260246000fd5b600080fd5b600080fd5b600080fd5b600080fd5b600080fd5b7f4c61756e63687065675f5f496e76616c6964537461727454696d650000000000600082015250565b7f4552433732313a2061646472657373207a65726f206973206e6f74206120766160008201527f6c6964206f776e65720000000000000000000000000000000000000000000000602082015250565b7f4c61756e63687065675f5f4e6f74456c696769626c65466f72416c6c6f776c6960008201527f73744d696e740000000000000000000000000000000000000000000000000000602082015250565b7f4c61756e63687065675f5f5075626c696353616c654265666f7265416c6c6f7760008201527f6c69737400000000000000000000000000000000000000000000000000000000602082015250565b7f4c61756e63687065675f5f5472616e736665724661696c656400000000000000600082015250565b7f4c61756e63687065675f5f4e6f74456e6f756768415641580000000000000000600082015250565b50565b7f4c61756e63687065675f5f496e76616c6964416c6c6f776c6973745072696365600082015250565b7f77726f6e675f7068617365000000000000000000000000000000000000000000600082015250565b600481106110c3576110c2610e7e565b5b50565b6110cf81610da5565b81146110da57600080fd5b50565b6110e681610dea565b81146110f157600080fd5b5056fea26469706673582212208aad75cc2ff00a9cf8f3ad6257bee180f3cbfba592d7c2ab16622ceb6387c88b64736f6c63430008060033",
  "linkReferences": {},
  "deployedLinkReferences": {}
}